:1000000001308A00082900003C3084008313000876
:10001000031917280630F800F701F70B0D28F80B25
:100020000C287B30F700F70B1328800B0A280800F8
:100030003A0888003B1C06113B18061586150A3045
:10004000BC00042086110A30BC0004200800A3086C
:10005000031D34282208093C031C342838153808AD
:100060008316870083129701A308031D3B282208EB
:100070000A3C031895283811380883168700831224
:1000800007110C309700A308031D4A282208093CD9
:1000900003185728A308031D572822081D3C031CDA
:1000A0005728333095001708CF3997009528A308B3
:1000B000031D5E2822081D3C03186C28A308031D9D
:1000C0006C282208453C031C6C287F3095001708DB
:1000D000CF39203897009528A308031D73282208DC
:1000E000453C03188128A308031D81282208633C8E
:1000F000031C8128B23095001708CF39303897009B
:100100009528A308031D88282208633C0318952816
:10011000A308031D95282208963C031C9528E5306A
:1001200095001708CF39303897008A110A128629AE
:10013000C1010408C0004110831B41143A0EF0387D
:10014000BC00BC07E23EBD00323EBF003A080F399A
:10015000BD07BD07BF07E93EBE00BE07BE07390E9B
:100160000F39BE07BF07BE0DBF0DBF09BF0D390850
:100170000F39BF07BC0D0730BB000A30BF07BE03F5
:10018000031CBE28BE07BD03031CC228BD07BC0359
:10019000031CC628BC07BB03031CCA283B308400D1
:1001A000831307304005401384073F3004020319CE
:1001B00040170008F700031DE528401BE528401AFA
:1001C0000229C019E5282030E828C0154012303037
:1001D000F707BA010408B9003A10831B3A147708EC
:1001E000C200360884008313371883174208800042
:1001F000840A8001B60A0319B70A390884008313F8
:100200003A188317840A401FD5288A110A129029A8
:10021000840183131F308305B701B601FF30B80096
:1002200083161F149F141F159F1107309C00543014
:100230008312A9006530AA006D30AB007030AC00AD
:100240006530AD007230AE006130AF007430B00088
:100250007530B1007230B2006530B3003A30B4008E
:10026000B501831686110611880138308312BA0051
:10027000BB0118200130BA00BB0118200C30BA00B5
:10028000BB011820A40124080C3C031C532929306D
:100290002407840083130008B900BA000130BB00B2
:1002A0001820A40A43290030F80006389200FF30D5
:1002B000831692001F109F141F159F150030F80021
:1002C00083121F08C73978049F0083161F138312F7
:1002D0001F179F1783169F1783121F142130F700D3
:1002E000F70B70291F151F19732983161E08831217
:1002F000A0001E08A1001030F700F70B7D290000B8
:100300000310210CA300200CA2002728B7012530E0
:10031000B600103084002308BA002208B9009828DB
:100320008C30BA00BB011820A4012408033C031C34
:10033000A52925302407840083130008B900BA00DA
:0E0340000130BB001820A40A95296E29630025
:02400E00323F3F
:00000001FF
;PIC16F877A
;CRC=BC56  CREATED="07-„«—”-16 19:46"
